:100000000C945D000C9485000C9485000C94850084
:100010000C9485000C9485000C9485000C9485004C
:100020000C9485000C9485000C9485000C9485003C
:100030000C9485000C9485000C9485000C9485002C
:100040000C942E030C9485000C9438020C946A02D4
:100050000C9485000C9485000C9485000C9485000C
:100060000C9485000C94850000000008000201003B
:100070000003040700000000000000000102040863
:100080001020408001020408102001020408102002
:10009000040404040404040402020202020203032E
:1000A0000303030300000000250028002B000000CC
:1000B0000000240027002A009A0211241FBECFEF5F
:1000C000D8E0DEBFCDBF11E0A0E0B1E0E8E5FAE0A6
:1000D00002C005900D92A232B107D9F721E0A2E249
:1000E000B1E001C01D92A83CB207E1F710E0CDE5F8
:1000F000D0E004C02197FE010E942405CC35D10731
:10010000C9F70E941F030C942A050C940000CF939A
:10011000DF93EC01BC0185E00E941104BE0186E082
:100120000E94110461E087E00E94D30460E088E04F
:100130000E94D30460E089E00E94D30461E08BE078
:100140000E94D30460E071E082E291E0DF91CF9100
:100150000C940703CF93DF93EC01BC0185E00E9470
:100160001104BE0186E00E94110460E087E00E9455
:10017000D30461E088E00E94D30461E089E00E943A
:10018000D30460E08BE00E94D30468E071E082E277
:1001900091E0DF91CF910C94070326E040E855E20F
:1001A00060E070E082E291E00E94D60161E087E0C9
:1001B0000E94970461E088E00E94970461E089E072
:1001C0000E94970461E08BE00E94970461E085E063
:1001D0000E94970461E086E00C94970484E690E026
:1001E0000E94870068EE73E080E090E00E949D032B
:1001F00084E690E00C94AA00FC01918D228D892F59
:1002000090E0805C9F4F821B91098F73992708951E
:10021000FC01918D828D981731F0828DE80FF11DD0
:10022000858D90E008958FEF9FEF0895FC01918DEB
:10023000828D981761F0A28DAE0FBF2FB11D5D9614
:100240008C91928D9F5F9F73928F90E008958FEFB6
:100250009FEF0895FC01538D448D252F30E0842FAE
:1002600090E0821B930B541710F0CF9608950197DE
:10027000089580E992E0892B49F080E090E0892B95
:1002800029F00E94900281110C9400000895FC0155
:10029000A48DA80FB92FB11DA35ABF4F2C91848DE7
:1002A00090E001968F739927848FA689B7892C9344
:1002B000A089B1898C91837080648C93938D848D97
:1002C000981306C00288F389E02D80818F7D80839A
:1002D0000895CF93DF93EC01888D8823B9F0AA8924
:1002E000BB89E889F9898C9185FD03C0808186FDF1
:1002F0000DC00FB607FCF7CF8C9185FFF2CF808140
:1003000085FFEDCFCE010E944701E9CFDF91CF916C
:100310000895EF92FF920F931F93CF93DF93EC0119
:1003200081E0888F9B8D8C8D98131AC0E889F9899C
:10033000808185FF15C09FB7F894EE89FF8960839F
:10034000E889F98980818370806480839FBF81E020
:1003500090E0DF91CF911F910F91FF90EF90089562
:10036000F62E0B8D10E00F5F1F4F0F731127E02E3D
:100370008C8D8E110CC00FB607FCFACFE889F98975
:10038000808185FFF5CFCE010E944701F1CFEB8D33
:10039000EC0FFD2FF11DE35AFF4FF0829FB7F89449
:1003A0000B8FEA89FB8980818062CFCFCF92DF9269
:1003B000EF92FF921F93CF93DF93EC016A017B01D1
:1003C000122FE889F98982E08083C11481EED80672
:1003D000E104F104A1F060E079E08DE390E0A70191
:1003E00096010E9402052150310941095109569593
:1003F000479537952795211580E1380798F0E889CA
:10040000F989108260E874E88EE190E0A701960116
:100410000E9402052150310941095109569547951D
:1004200037952795EC85FD853083EE85FF85208304
:10043000188EEC89FD891083EA89FB8980818061AF
:100440008083EA89FB89808188608083EA89FB89CF
:10045000808180688083EA89FB8980818F7D8083A9
:10046000DF91CF911F91FF90EF90DF90CF90089593
:100470001F920F920FB60F9211242F938F939F9379
:10048000EF93FF93E0913201F09133018081E0918D
:100490003801F091390182FD1BC0908180913B01B0
:1004A0008F5F8F7320913C01821741F0E0913B01F7
:1004B000F0E0EE5DFE4F958F80933B01FF91EF9151
:1004C0009F918F912F910F900FBE0F901F901895B5
:1004D0008081F4CF1F920F920FB60F9211242F93A9
:1004E0003F934F935F936F937F938F939F93AF93BC
:1004F000BF93EF93FF9382E291E00E944701FF9147
:10050000EF91BF91AF919F918F917F916F915F918B
:100510004F913F912F910F900FBE0F901F90189504
:1005200082E291E00E94FC0021E0892B09F420E0A6
:10053000822F0895E2E2F1E01382128288EE93E0C6
:10054000A0E0B0E084839583A683B78381E191E046
:100550009183808385EC90E09587848784EC90E09C
:100560009787868780EC90E0918B808B81EC90E080
:10057000938B828B82EC90E0958B848B86EC90E061
:10058000978B868B118E128E138E148E0895AF92D8
:10059000BF92CF92DF92EF92FF920F931F93CF9370
:1005A000DF936C017B018B01040F151FEB015E01D2
:1005B000AE18BF08C017D10759F06991D601ED9167
:1005C000FC910190F081E02DC6010995892B79F706
:1005D000C501DF91CF911F910F91FF90EF90DF90B8
:1005E000CF90BF90AF900895FB0101900020E9F7F4
:1005F0003197AF01461B570BDC01ED91FC91028056
:10060000F381E02D09946FE171E00C94F4020F93F3
:100610001F93CF93DF938C01D0E0C0E0611571058B
:1006200019F00E94F402EC01C8010E9403038C0F30
:100630009D1FDF91CF911F910F91089508950E9402
:10064000D6030E941E030E94CD00C9E3D1E00E94A0
:10065000EE002097E1F30E943901F9CF1F920F922B
:100660000FB60F9211242F933F938F939F93AF93C5
:10067000BF938091C0019091C101A091C201B0913E
:10068000C3013091BF0123E0230F2D3758F50196A8
:10069000A11DB11D2093BF018093C0019093C101A2
:1006A000A093C201B093C3018091C4019091C50190
:1006B000A091C601B091C7010196A11DB11D809303
:1006C000C4019093C501A093C601B093C701BF9127
:1006D000AF919F918F913F912F910F900FBE0F90EF
:1006E0001F90189526E8230F0296A11DB11DD2CFA9
:1006F0003FB7F8948091C4019091C501A091C601C3
:10070000B091C70126B5A89B05C02F3F19F00196EF
:10071000A11DB11D3FBFBA2FA92F982F8827BC015B
:10072000CD01620F711D811D911D42E0660F771F83
:10073000881F991F4A95D1F708958F929F92AF9283
:10074000BF92CF92DF92EF92FF926B017C010E94E9
:1007500078034B015C01C114D104E104F104E9F018
:100760000E9401050E947803681979098A099B098A
:10077000683E73408105910570F321E0C21AD108EB
:10078000E108F10888EE880E83E0981EA11CB11CD8
:10079000C114D104E104F10429F7FF90EF90DF9038
:1007A000CF90BF90AF909F908F900895789484B52C
:1007B000826084BD84B5816084BD85B5826085BD5D
:1007C00085B5816085BDEEE6F0E080818160808343
:1007D000E1E8F0E010828081826080838081816026
:1007E0008083E0E8F0E0808181608083E1EBF0E0ED
:1007F000808184608083E0EBF0E080818160808391
:10080000EAE7F0E080818460808380818260808379
:100810008081816080838081806880831092C100A4
:1008200008951F93CF93DF93182FEB0161E00E948F
:100830009704209739F460E0812FDF91CF911F91C9
:100840000C94D304CF3FD10511F461E0F5CFE12F33
:10085000F0E0E859FF4FE491E33031F140F4E1304A
:10086000B1F0E230E1F0C038D1057CF7E4CFE730F9
:1008700029F1E83059F1E430B1F7809180008062CD
:1008800080938000D0938B00C0938A0004C084B50D
:10089000806884BDC7BDDF91CF911F91089584B555
:1008A000806284BDC8BDF7CF80918000806880934E
:1008B0008000D0938900C0938800EDCF8091B00074
:1008C00080688093B000C093B300E5CF8091B00002
:1008D00080628093B000C093B400DDCF833081F09C
:1008E00028F4813099F08230A9F008958730A9F07A
:1008F0008830C9F08430B1F4809180008F7D03C0CE
:10090000809180008F7780938000089584B58F77E1
:1009100084BD089584B58F7DFBCF8091B0008F7723
:100920008093B00008958091B0008F7DF9CFCF9370
:10093000DF9390E0FC01E458FF4F249180579F4FD4
:10094000FC0184918823C9F090E0880F991FFC0175
:10095000E255FF4FA591B491FC01EC55FF4FC591B5
:10096000D49161110DC09FB7F8948C91209582238A
:100970008C938881282328839FBFDF91CF9108958E
:10098000623051F49FB7F8943C91822F8095832375
:100990008C93E8812E2BEFCF8FB7F894EC912E2B10
:1009A0002C938FBFEACF1F93CF93DF93282F30E094
:1009B000F901E859FF4F8491F901E458FF4FD491B0
:1009C000F901E057FF4FC491CC23A9F0162F8111F4
:1009D0000E946E04EC2FF0E0EE0FFF1FEC55FF4F6E
:1009E000A591B4918FB7F894EC91111108C0D095EE
:1009F000DE23DC938FBFDF91CF911F910895DE2B13
:100A0000F8CF0895A1E21A2EAA1BBB1BFD010DC051
:100A1000AA1FBB1FEE1FFF1FA217B307E407F507AE
:100A200020F0A21BB30BE40BF50B661F771F881F8A
:100A3000991F1A9469F760957095809590959B0120
:100A4000AC01BD01CF010895EE0FFF1F0590F49199
:080A5000E02D0994F894FFCF9A
:100A5800466F7277617264004261636B0000000048
:100A6800008901C7022A016901FC00160108010D6D
:020A78000A0072
:00000001FF
