:100000000C945D000C9485000C9485000C94850084
:100010000C9485000C9485000C9485000C9485004C
:100020000C9485000C9485000C9485000C9485003C
:100030000C9485000C9485000C9485000C9485002C
:100040000C94E0020C9485000C94EA010C941C02C0
:100050000C9485000C9485000C9485000C9485000C
:100060000C9485000C94850000000008000201003B
:100070000003040700000000000000000102040863
:100080001020408001020408102001020408102002
:10009000040404040404040402020202020203032E
:1000A0000303030300000000250028002B000000CC
:1000B0000000240027002A004C0211241FBECFEFAD
:1000C000D8E0DEBFCDBF11E0A0E0B1E0E2E0F9E0B2
:1000D00002C005900D92A831B107D9F721E0A8E13F
:1000E000B1E001C01D92AE3BB207E1F710E0CDE5F3
:1000F000D0E004C02197FE010E947904CC35D107DD
:10010000C9F70E94D1020C947F040C94000061E0B6
:100110008DE00E94EC0326E040E855E260E070E0EC
:1001200088E191E00C94880160E071E088E191E061
:100130000E94B90261E08DE00E94280468EE73E03D
:1001400080E090E00E944F0360E08DE00E94280470
:1001500068EE73E080E090E00C944F03FC01918D19
:10016000228D892F90E0805C9F4F821B91098F73B5
:1001700099270895FC01918D828D981731F0828D19
:10018000E80FF11D858D90E008958FEF9FEF0895A2
:10019000FC01918D828D981761F0A28DAE0FBF2F5B
:1001A000B11D5D968C91928D9F5F9F73928F90E0B1
:1001B00008958FEF9FEF0895FC01538D448D252FF7
:1001C00030E0842F90E0821B930B541710F0CF96F1
:1001D00008950197089582E492E0892B49F080E028
:1001E00090E0892B29F00E94420281110C940000BA
:1001F0000895FC01A48DA80FB92FB11DA35ABF4FBC
:100200002C91848D90E001968F739927848FA68915
:10021000B7892C93A089B1898C91837080648C9369
:10022000938D848D981306C00288F389E02D808118
:100230008F7D80830895CF93DF93EC01888D882391
:10024000B9F0AA89BB89E889F9898C9185FD03C039
:10025000808186FD0DC00FB607FCF7CF8C9185FF1E
:10026000F2CF808185FFEDCFCE010E94F900E9CF6A
:10027000DF91CF910895EF92FF920F931F93CF9349
:10028000DF93EC0181E0888F9B8D8C8D98131AC0D1
:10029000E889F989808185FF15C09FB7F894EE89B8
:1002A000FF896083E889F989808183708064808315
:1002B0009FBF81E090E0DF91CF911F910F91FF9060
:1002C000EF900895F62E0B8D10E00F5F1F4F0F7308
:1002D0001127E02E8C8D8E110CC00FB607FCFACFC3
:1002E000E889F989808185FFF5CFCE010E94F90068
:1002F000F1CFEB8DEC0FFD2FF11DE35AFF4FF08294
:100300009FB7F8940B8FEA89FB8980818062CFCFF9
:10031000CF92DF92EF92FF921F93CF93DF93EC0186
:100320006A017B01122FE889F98982E08083C11478
:1003300081EED806E104F104A1F060E079E08DE3FC
:1003400090E0A70196010E9457042150310941090C
:1003500051095695479537952795211580E138071E
:1003600098F0E889F989108260E874E88EE190E0FD
:10037000A70196010E9457042150310941095109F2
:100380005695479537952795EC85FD853083EE8505
:10039000FF852083188EEC89FD891083EA89FB890B
:1003A000808180618083EA89FB8980818860808385
:1003B000EA89FB89808180688083EA89FB89808162
:1003C0008F7D8083DF91CF911F91FF90EF90DF9021
:1003D000CF9008951F920F920FB60F9211242F9372
:1003E0008F939F93EF93FF93E0912801F091290160
:1003F0008081E0912E01F0912F0182FD1BC0908140
:10040000809131018F5F8F7320913201821741F00B
:10041000E0913101F0E0E85EFE4F958F809331016D
:10042000FF91EF919F918F912F910F900FBE0F90A1
:100430001F9018958081F4CF1F920F920FB60F92E4
:1004400011242F933F934F935F936F937F938F93D9
:100450009F93AF93BF93EF93FF9388E191E00E9446
:10046000F900FF91EF91BF91AF919F918F917F9193
:100470006F915F914F913F912F910F900FBE0F9011
:100480001F90189588E191E00E94AE0021E0892B31
:1004900009F420E0822F0895E8E1F1E0138212824E
:1004A00088EE93E0A0E0B0E084839583A683B783D1
:1004B00087E091E09183808385EC90E09587848745
:1004C00084EC90E09787868780EC90E0918B808B1E
:1004D00081EC90E0938B828B82EC90E0958B848B07
:1004E00086EC90E0978B868B118E128E138E148E75
:1004F0000895AF92BF92CF92DF92EF92FF920F9347
:100500001F93CF93DF936C017B018B01040F151FA9
:10051000EB015E01AE18BF08C017D10759F0699111
:10052000D601ED91FC910190F081E02DC601099575
:10053000892B79F7C501DF91CF911F910F91FF9022
:10054000EF90DF90CF90BF90AF900895FB010190A6
:100550000020E9F73197AF01461B570BDC01ED9105
:10056000FC910280F381E02D099465E171E00C9427
:10057000A6020F931F93CF93DF938C01D0E0C0E0CE
:100580006115710519F00E94A602EC01C8010E94D4
:10059000B5028C0F9D1FDF91CF911F910F91089590
:1005A00008950E9488030E94D0020E948700CBEE2B
:1005B000D0E00E9494002097E1F30E94EB00F9CF75
:1005C0001F920F920FB60F9211242F933F938F9388
:1005D0009F93AF93BF938091B6019091B701A09183
:1005E000B801B091B9013091B50123E0230F2D3747
:1005F00058F50196A11DB11D2093B5018093B60158
:100600009093B701A093B801B093B9018091BA015A
:100610009091BB01A091BC01B091BD010196A11DBB
:10062000B11D8093BA019093BB01A093BC01B0931C
:10063000BD01BF91AF919F918F913F912F910F90ED
:100640000FBE0F901F90189526E8230F0296A11D4C
:10065000B11DD2CF3FB7F8948091BA019091BB0100
:10066000A091BC01B091BD0126B5A89B05C02F3F4C
:1006700019F00196A11DB11D3FBFBA2FA92F982FC8
:100680008827BC01CD01620F711D811D911D42E0C3
:10069000660F771F881F991F4A95D1F708958F928B
:1006A0009F92AF92BF92CF92DF92EF92FF926B0137
:1006B0007C010E942A034B015C01C114D104E104B6
:1006C000F104E9F00E9456040E942A03681979098E
:1006D0008A099B09683E73408105910570F321E00A
:1006E000C21AD108E108F10888EE880E83E0981E4E
:1006F000A11CB11CC114D104E104F10429F7FF903D
:10070000EF90DF90CF90BF90AF909F908F90089523
:10071000789484B5826084BD84B5816084BD85B5DC
:10072000826085BD85B5816085BDEEE6F0E08081A3
:1007300081608083E1E8F0E01082808182608083C4
:10074000808181608083E0E8F0E080818160808347
:10075000E1EBF0E0808184608083E0EBF0E0808179
:1007600081608083EAE7F0E080818460808380811B
:1007700082608083808181608083808180688083C3
:100780001092C1000895833081F028F4813099F0EF
:100790008230A9F008958730A9F08830C9F08430FC
:1007A000B1F4809180008F7D03C0809180008F77AD
:1007B00080938000089584B58F7784BD089584B5B3
:1007C0008F7DFBCF8091B0008F778093B00008952C
:1007D0008091B0008F7DF9CFCF93DF9390E0FC0143
:1007E000E458FF4F249180579F4FFC018491882348
:1007F000C9F090E0880F991FFC01E255FF4FA591C9
:10080000B491FC01EC55FF4FC591D49161110DC01D
:100810009FB7F8948C91209582238C93888128230C
:1008200028839FBFDF91CF910895623051F49FB725
:10083000F8943C91822F809583238C93E8812E2B12
:10084000EFCF8FB7F894EC912E2B2C938FBFEACF7C
:100850001F93CF93DF93282F30E0F901E859FF4F22
:100860008491F901E458FF4FD491F901E057FF4F0B
:10087000C491CC23A9F0162F81110E94C303EC2F41
:10088000F0E0EE0FFF1FEC55FF4FA591B4918FB72D
:10089000F894EC91111108C0D095DE23DC938FBF42
:1008A000DF91CF911F910895DE2BF8CF0895A1E23B
:1008B0001A2EAA1BBB1BFD010DC0AA1FBB1FEE1FDA
:1008C000FF1FA217B307E407F50720F0A21BB30B25
:1008D000E40BF50B661F771F881F991F1A9469F7A1
:1008E00060957095809590959B01AC01BD01CF01FD
:1008F0000895EE0FFF1F0590F491E02D0994F894F0
:02090000FFCF27
:10090200486900000000003B017902DC001B01AED7
:0809120000C800BA000D0A0044
:00000001FF
